:100000000C942A000C943F000C943F000C943F0089
:100010000C943F000C943F000C943F000C943F0064
:100020000C943F000C943F000C943F000C943F0054
:100030000C943F000C9460010C943F000C943F0022
:100040000C943F000C943F000C943F000C943F0034
:100050000C943F0011241FBECFE5D8E0DEBFCDBF1A
:1000600010E0A0E6B0E0E0E2F4E002C005900D92FE
:10007000A236B107D9F70E94D0010C940E020C945D
:100080000000DF93CF9300D000D0CDB7DEB7198248
:100090001A821B821C829C01442737FD4095542FF5
:1000A00060ED77E00EC0CB010197F1F789819A816D
:1000B000AB81BC810196A11DB11D89839A83AB835D
:1000C000BC8389819A81AB81BC8182179307A40785
:1000D000B50748F30F900F900F900F90CF91DF91DD
:1000E0000895DF93CF9300D000D0CDB7DEB719824B
:1000F0001A821B821C829C01442737FD4095542F95
:1001000062E00EC0862F8A95F1F789819A81AB81D2
:10011000BC810196A11DB11D89839A83AB83BC83E9
:1001200089819A81AB81BC8182179307A407B507A7
:1001300048F30F900F900F900F90CF91DF9108959B
:10014000D898D998DA9A88E385BBDA9820EF30E01E
:10015000C9010197F1F7DA9A8EE085BBDA98C901F7
:100160000197F1F7DA9A86E085BBDA98C901019721
:10017000F1F70895DF93CF9300D000D0CDB7DEB76D
:10018000D898D998DA9A81E085BBDA9819821A82D0
:100190001B821C8220ED37E00EC0C9010197F1F7E8
:1001A00089819A81AB81BC810196A11DB11D898392
:1001B0009A83AB83BC8389819A81AB81BC81883768
:1001C0009105A105B10548F30F900F900F900F9086
:1001D000CF91DF910895D89AD998DA9A85BBDA98A9
:1001E00080EF90E00197F1F70895DF93CF9300D06F
:1001F00000D0CDB7DEB79C01D898D998DA9A198289
:100200001A821B821C8240ED57E00EC0CA01019782
:10021000F1F789819A81AB81BC810196A11DB11D45
:1002200089839A83AB83BC8389819A81AB81BC81AA
:100230000097A105B10551F361502F5F3F4F86E054
:10024000220F331F8A95E1F7620F65BB19821A826C
:100250001B821C8220ED37E00EC0C9010197F1F727
:1002600089819A81AB81BC810196A11DB11D8983D1
:100270009A83AB83BC8389819A81AB81BC810097CF
:10028000A105B10551F3DA9880EF90E00197F1F7FD
:100290000F900F900F900F90CF91DF91089510BCA9
:1002A00083E389B988E98AB986E880BD789408959E
:1002B0005D9BFECF8CB908955F9BFECF8CB10895F6
:1002C0001F920F920FB60F9211242F933F934F93CB
:1002D0005F936F937F938F939F93AF93BF93EF93AE
:1002E000FF935F9BFECF8CB1809360008091600094
:1002F00090E00E94EB00FF91EF91BF91AF919F9131
:100300008F917F916F915F914F913F912F910F90BE
:100310000FBE0F901F901895EF92FF920F931F93AF
:10032000CF93DF93FB01DA01B8018701C0E0D0E091
:1003300088838081898381818A838C918B831196C4
:100340008C918C8340E050E007C0F901E40FF51F69
:1003500080818C834F5F5F4FF90101900020E9F7A6
:100360003197E21BF30B21964E175F0770F3C0E045
:10037000D0E0FE01E40FF51FDB018C91868311961E
:100380008C918783D8018C91808711968C9181877D
:100390008881DF91CF911F910F91FF90EF90089589
:1003A000EF92FF920F931F938FEF84BB15BA8ABB16
:1003B0001BBA81BB83E082BB80ED97E028EC30E084
:1003C000F9013197F1F70197D9F710BC83E389B9A7
:1003D00088E98AB986E880BD78940E94A0000E94CE
:1003E000BA00789481E6809360008AE362E370E06B
:1003F00043E350E025E630E004E410E093E6E92E24
:10040000F12C0E948C015D9BFECF8AE38CB980E0C9
:1004100090E01F910F91FF90EF900895F894FFCF17
:02042000610079
:00000001FF
